{
  "_format": "hh-sol-artifact-1",
  "contractName": "DigitalTimeCapsule",
  "sourceName": "contracts/DigitalTimeCapsule.sol",
  "abi": [
    {
      "inputs": [],
      "stateMutability": "nonpayable",
      "type": "constructor"
    },
    {
      "anonymous": false,
      "inputs": [
        {
          "indexed": true,
          "internalType": "uint256",
          "name": "capsuleId",
          "type": "uint256"
        },
        {
          "indexed": true,
          "internalType": "address",
          "name": "creator",
          "type": "address"
        },
        {
          "indexed": false,
          "internalType": "uint256",
          "name": "unlockTime",
          "type": "uint256"
        },
        {
          "indexed": false,
          "internalType": "string",
          "name": "title",
          "type": "string"
        }
      ],
      "name": "CapsuleCreated",
      "type": "event"
    },
    {
      "anonymous": false,
      "inputs": [
        {
          "indexed": true,
          "internalType": "uint256",
          "name": "capsuleId",
          "type": "uint256"
        },
        {
          "indexed": true,
          "internalType": "address",
          "name": "revealer",
          "type": "address"
        }
      ],
      "name": "CapsuleRevealed",
      "type": "event"
    },
    {
      "anonymous": false,
      "inputs": [
        {
          "indexed": true,
          "internalType": "uint256",
          "name": "capsuleId",
          "type": "uint256"
        }
      ],
      "name": "CapsuleUpdated",
      "type": "event"
    },
    {
      "inputs": [
        {
          "internalType": "uint256",
          "name": "",
          "type": "uint256"
        }
      ],
      "name": "capsules",
      "outputs": [
        {
          "internalType": "address",
          "name": "creator",
          "type": "address"
        },
        {
          "internalType": "string",
          "name": "encryptedMessage",
          "type": "string"
        },
        {
          "internalType": "uint256",
          "name": "unlockTime",
          "type": "uint256"
        },
        {
          "internalType": "bool",
          "name": "isRevealed",
          "type": "bool"
        },
        {
          "internalType": "string",
          "name": "title",
          "type": "string"
        },
        {
          "internalType": "string",
          "name": "description",
          "type": "string"
        }
      ],
      "stateMutability": "view",
      "type": "function"
    },
    {
      "inputs": [
        {
          "internalType": "string",
          "name": "_encryptedMessage",
          "type": "string"
        },
        {
          "internalType": "uint256",
          "name": "_unlockTime",
          "type": "uint256"
        },
        {
          "internalType": "string",
          "name": "_title",
          "type": "string"
        },
        {
          "internalType": "string",
          "name": "_description",
          "type": "string"
        }
      ],
      "name": "createCapsule",
      "outputs": [
        {
          "internalType": "uint256",
          "name": "",
          "type": "uint256"
        }
      ],
      "stateMutability": "nonpayable",
      "type": "function"
    },
    {
      "inputs": [
        {
          "internalType": "uint256",
          "name": "_capsuleId",
          "type": "uint256"
        }
      ],
      "name": "getCapsuleDetails",
      "outputs": [
        {
          "internalType": "address",
          "name": "creator",
          "type": "address"
        },
        {
          "internalType": "uint256",
          "name": "unlockTime",
          "type": "uint256"
        },
        {
          "internalType": "bool",
          "name": "isRevealed",
          "type": "bool"
        },
        {
          "internalType": "string",
          "name": "title",
          "type": "string"
        },
        {
          "internalType": "string",
          "name": "description",
          "type": "string"
        }
      ],
      "stateMutability": "view",
      "type": "function"
    },
    {
      "inputs": [
        {
          "internalType": "address",
          "name": "_user",
          "type": "address"
        }
      ],
      "name": "getCapsulesByUser",
      "outputs": [
        {
          "internalType": "uint256[]",
          "name": "",
          "type": "uint256[]"
        }
      ],
      "stateMutability": "view",
      "type": "function"
    },
    {
      "inputs": [
        {
          "internalType": "uint256",
          "name": "_capsuleId",
          "type": "uint256"
        }
      ],
      "name": "isCapsuleReady",
      "outputs": [
        {
          "internalType": "bool",
          "name": "",
          "type": "bool"
        }
      ],
      "stateMutability": "view",
      "type": "function"
    },
    {
      "inputs": [
        {
          "internalType": "uint256",
          "name": "_capsuleId",
          "type": "uint256"
        }
      ],
      "name": "revealCapsule",
      "outputs": [
        {
          "internalType": "string",
          "name": "",
          "type": "string"
        }
      ],
      "stateMutability": "view",
      "type": "function"
    },
    {
      "inputs": [
        {
          "internalType": "uint256",
          "name": "_capsuleId",
          "type": "uint256"
        },
        {
          "internalType": "string",
          "name": "_newEncryptedMessage",
          "type": "string"
        }
      ],
      "name": "updateCapsule",
      "outputs": [],
      "stateMutability": "nonpayable",
      "type": "function"
    },
    {
      "inputs": [
        {
          "internalType": "address",
          "name": "",
          "type": "address"
        },
        {
          "internalType": "uint256",
          "name": "",
          "type": "uint256"
        }
      ],
      "name": "userCapsules",
      "outputs": [
        {
          "internalType": "uint256",
          "name": "",
          "type": "uint256"
        }
      ],
      "stateMutability": "view",
      "type": "function"
    }
  ],
  "bytecode": "0x6080604052348015600f57600080fd5b506001600281905550611b10806100276000396000f3fe608060405234801561001057600080fd5b50600436106100885760003560e01c80637d5f54ae1161005b5780637d5f54ae14610142578063a0d79fb514610172578063ae2078a4146101a2578063b076a4f6146101d257610088565b80630d79f3921461008d5780631d04cc40146100c1578063517bbf46146100dd5780636e29477814610112575b600080fd5b6100a760048036038101906100a29190610db3565b610202565b6040516100b8959493929190610edb565b60405180910390f35b6100db60048036038101906100d69190611071565b610423565b005b6100f760048036038101906100f29190610db3565b6105a7565b604051610109969594939291906110cd565b60405180910390f35b61012c6004803603810190610127919061116f565b6107a8565b604051610139919061125a565b60405180910390f35b61015c60048036038101906101579190610db3565b61083f565b604051610169919061127c565b60405180910390f35b61018c60048036038101906101879190611297565b6108f9565b60405161019991906112d7565b60405180910390f35b6101bc60048036038101906101b791906112f2565b61092a565b6040516101c991906112d7565b60405180910390f35b6101ec60048036038101906101e79190610db3565b610be2565b6040516101f991906113ad565b60405180910390f35b600080600060608060008060008881526020019081526020016000209050600073ffffffffffffffffffffffffffffffffffffffff168160000160009054906101000a900473ffffffffffffffffffffffffffffffffffffffff1673ffffffffffffffffffffffffffffffffffffffff16036102b3576040517f08c379a00000000000000000000000000000000000000000000000000000000081526004016102aa9061141b565b60405180910390fd5b8060000160009054906101000a900473ffffffffffffffffffffffffffffffffffffffff1681600201548260030160009054906101000a900460ff1683600401846005018180546103039061146a565b80601f016020809104026020016040519081016040528092919081815260200182805461032f9061146a565b801561037c5780601f106103515761010080835404028352916020019161037c565b820191906000526020600020905b81548152906001019060200180831161035f57829003601f168201915b5050505050915080805461038f9061146a565b80601f01602080910402602001604051908101604052809291908181526020018280546103bb9061146a565b80156104085780601f106103dd57610100808354040283529160200191610408565b820191906000526020600020905b8154815290600101906020018083116103eb57829003601f168201915b50505050509050955095509550955095505091939590929450565b600080600084815260200190815260200160002090503373ffffffffffffffffffffffffffffffffffffffff168160000160009054906101000a900473ffffffffffffffffffffffffffffffffffffffff1673ffffffffffffffffffffffffffffffffffffffff16146104cb576040517f08c379a00000000000000000000000000000000000000000000000000000000081526004016104c2906114e7565b60405180910390fd5b8060030160009054906101000a900460ff161561051d576040517f08c379a000000000000000000000000000000000000000000000000000000000815260040161051490611553565b60405180910390fd5b80600201544210610563576040517f08c379a000000000000000000000000000000000000000000000000000000000815260040161055a906115bf565b60405180910390fd5b81816001019081610574919061178b565b50827f6c318195895c9b5ed54578d38132d3af45a63df9431b4a812564dde90759cc0160405160405180910390a2505050565b60006020528060005260406000206000915090508060000160009054906101000a900473ffffffffffffffffffffffffffffffffffffffff16908060010180546105f09061146a565b80601f016020809104026020016040519081016040528092919081815260200182805461061c9061146a565b80156106695780601f1061063e57610100808354040283529160200191610669565b820191906000526020600020905b81548152906001019060200180831161064c57829003601f168201915b5050505050908060020154908060030160009054906101000a900460ff16908060040180546106979061146a565b80601f01602080910402602001604051908101604052809291908181526020018280546106c39061146a565b80156107105780601f106106e557610100808354040283529160200191610710565b820191906000526020600020905b8154815290600101906020018083116106f357829003601f168201915b5050505050908060050180546107259061146a565b80601f01602080910402602001604051908101604052809291908181526020018280546107519061146a565b801561079e5780601f106107735761010080835404028352916020019161079e565b820191906000526020600020905b81548152906001019060200180831161078157829003601f168201915b5050505050905086565b6060600160008373ffffffffffffffffffffffffffffffffffffffff1673ffffffffffffffffffffffffffffffffffffffff16815260200190815260200160002080548060200260200160405190810160405280929190818152602001828054801561083357602002820191906000526020600020905b81548152602001906001019080831161081f575b50505050509050919050565b6000806000808481526020019081526020016000209050600073ffffffffffffffffffffffffffffffffffffffff168160000160009054906101000a900473ffffffffffffffffffffffffffffffffffffffff1673ffffffffffffffffffffffffffffffffffffffff16036108e9576040517f08c379a00000000000000000000000000000000000000000000000000000000081526004016108e09061141b565b60405180910390fd5b8060020154421015915050919050565b6001602052816000526040600020818154811061091557600080fd5b90600052602060002001600091509150505481565b600042841161096e576040517f08c379a0000000000000000000000000000000000000000000000000000000008152600401610965906118cf565b60405180910390fd5b60008551116109b2576040517f08c379a00000000000000000000000000000000000000000000000000000000081526004016109a99061193b565b60405180910390fd5b60008351116109f6576040517f08c379a00000000000000000000000000000000000000000000000000000000081526004016109ed906119a7565b60405180910390fd5b600060026000815480929190610a0b906119f6565b9190505590506040518060c001604052803373ffffffffffffffffffffffffffffffffffffffff1681526020018781526020018681526020016000151581526020018581526020018481525060008083815260200190815260200160002060008201518160000160006101000a81548173ffffffffffffffffffffffffffffffffffffffff021916908373ffffffffffffffffffffffffffffffffffffffff1602179055506020820151816001019081610ac5919061178b565b506040820151816002015560608201518160030160006101000a81548160ff0219169083151502179055506080820151816004019081610b05919061178b565b5060a0820151816005019081610b1b919061178b565b50905050600160003373ffffffffffffffffffffffffffffffffffffffff1673ffffffffffffffffffffffffffffffffffffffff1681526020019081526020016000208190806001815401808255809150506001900390600052602060002001600090919091909150553373ffffffffffffffffffffffffffffffffffffffff16817f7d45684c54e61b833de19cb16f06caab4c68582063f0702fc917101bc472655f8787604051610bce929190611a3e565b60405180910390a380915050949350505050565b606060008060008481526020019081526020016000209050600073ffffffffffffffffffffffffffffffffffffffff168160000160009054906101000a900473ffffffffffffffffffffffffffffffffffffffff1673ffffffffffffffffffffffffffffffffffffffff1603610c8d576040517f08c379a0000000000000000000000000000000000000000000000000000000008152600401610c849061141b565b60405180910390fd5b8060020154421015610cd4576040517f08c379a0000000000000000000000000000000000000000000000000000000008152600401610ccb90611aba565b60405180910390fd5b806001018054610ce39061146a565b80601f0160208091040260200160405190810160405280929190818152602001828054610d0f9061146a565b8015610d5c5780601f10610d3157610100808354040283529160200191610d5c565b820191906000526020600020905b815481529060010190602001808311610d3f57829003601f168201915b5050505050915050919050565b6000604051905090565b600080fd5b600080fd5b6000819050919050565b610d9081610d7d565b8114610d9b57600080fd5b50565b600081359050610dad81610d87565b92915050565b600060208284031215610dc957610dc8610d73565b5b6000610dd784828501610d9e565b91505092915050565b600073ffffffffffffffffffffffffffffffffffffffff82169050919050565b6000610e0b82610de0565b9050919050565b610e1b81610e00565b82525050565b610e2a81610d7d565b82525050565b60008115159050919050565b610e4581610e30565b82525050565b600081519050919050565b600082825260208201905092915050565b60005b83811015610e85578082015181840152602081019050610e6a565b60008484015250505050565b6000601f19601f8301169050919050565b6000610ead82610e4b565b610eb78185610e56565b9350610ec7818560208601610e67565b610ed081610e91565b840191505092915050565b600060a082019050610ef06000830188610e12565b610efd6020830187610e21565b610f0a6040830186610e3c565b8181036060830152610f1c8185610ea2565b90508181036080830152610f308184610ea2565b90509695505050505050565b600080fd5b600080fd5b7f4e487b7100000000000000000000000000000000000000000000000000000000600052604160045260246000fd5b610f7e82610e91565b810181811067ffffffffffffffff82111715610f9d57610f9c610f46565b5b80604052505050565b6000610fb0610d69565b9050610fbc8282610f75565b919050565b600067ffffffffffffffff821115610fdc57610fdb610f46565b5b610fe582610e91565b9050602081019050919050565b82818337600083830152505050565b600061101461100f84610fc1565b610fa6565b9050828152602081018484840111156110305761102f610f41565b5b61103b848285610ff2565b509392505050565b600082601f83011261105857611057610f3c565b5b8135611068848260208601611001565b91505092915050565b6000806040838503121561108857611087610d73565b5b600061109685828601610d9e565b925050602083013567ffffffffffffffff8111156110b7576110b6610d78565b5b6110c385828601611043565b9150509250929050565b600060c0820190506110e26000830189610e12565b81810360208301526110f48188610ea2565b90506111036040830187610e21565b6111106060830186610e3c565b81810360808301526111228185610ea2565b905081810360a08301526111368184610ea2565b9050979650505050505050565b61114c81610e00565b811461115757600080fd5b50565b60008135905061116981611143565b92915050565b60006020828403121561118557611184610d73565b5b60006111938482850161115a565b91505092915050565b600081519050919050565b600082825260208201905092915050565b6000819050602082019050919050565b6111d181610d7d565b82525050565b60006111e383836111c8565b60208301905092915050565b6000602082019050919050565b60006112078261119c565b61121181856111a7565b935061121c836111b8565b8060005b8381101561124d57815161123488826111d7565b975061123f836111ef565b925050600181019050611220565b5085935050505092915050565b6000602082019050818103600083015261127481846111fc565b905092915050565b60006020820190506112916000830184610e3c565b92915050565b600080604083850312156112ae576112ad610d73565b5b60006112bc8582860161115a565b92505060206112cd85828601610d9e565b9150509250929050565b60006020820190506112ec6000830184610e21565b92915050565b6000806000806080858703121561130c5761130b610d73565b5b600085013567ffffffffffffffff81111561132a57611329610d78565b5b61133687828801611043565b945050602061134787828801610d9e565b935050604085013567ffffffffffffffff81111561136857611367610d78565b5b61137487828801611043565b925050606085013567ffffffffffffffff81111561139557611394610d78565b5b6113a187828801611043565b91505092959194509250565b600060208201905081810360008301526113c78184610ea2565b905092915050565b7f43617073756c6520646f6573206e6f7420657869737400000000000000000000600082015250565b6000611405601683610e56565b9150611410826113cf565b602082019050919050565b60006020820190508181036000830152611434816113f8565b9050919050565b7f4e487b7100000000000000000000000000000000000000000000000000000000600052602260045260246000fd5b6000600282049050600182168061148257607f821691505b6020821081036114955761149461143b565b5b50919050565b7f4f6e6c792063726561746f722063616e20757064617465000000000000000000600082015250565b60006114d1601783610e56565b91506114dc8261149b565b602082019050919050565b60006020820190508181036000830152611500816114c4565b9050919050565b7f43616e6e6f74207570646174652072657665616c65642063617073756c650000600082015250565b600061153d601e83610e56565b915061154882611507565b602082019050919050565b6000602082019050818103600083015261156c81611530565b9050919050565b7f43616e6e6f742075706461746520616674657220756e6c6f636b2074696d6500600082015250565b60006115a9601f83610e56565b91506115b482611573565b602082019050919050565b600060208201905081810360008301526115d88161159c565b9050919050565b60008190508160005260206000209050919050565b60006020601f8301049050919050565b600082821b905092915050565b6000600883026116417fffffffffffffffffffffffffffffffffffffffffffffffffffffffffffffffff82611604565b61164b8683611604565b95508019841693508086168417925050509392505050565b6000819050919050565b600061168861168361167e84610d7d565b611663565b610d7d565b9050919050565b6000819050919050565b6116a28361166d565b6116b66116ae8261168f565b848454611611565b825550505050565b600090565b6116cb6116be565b6116d6818484611699565b505050565b5b818110156116fa576116ef6000826116c3565b6001810190506116dc565b5050565b601f82111561173f57611710816115df565b611719846115f4565b81016020851015611728578190505b61173c611734856115f4565b8301826116db565b50505b505050565b600082821c905092915050565b600061176260001984600802611744565b1980831691505092915050565b600061177b8383611751565b9150826002028217905092915050565b61179482610e4b565b67ffffffffffffffff8111156117ad576117ac610f46565b5b6117b7825461146a565b6117c28282856116fe565b600060209050601f8311600181146117f557600084156117e3578287015190505b6117ed858261176f565b865550611855565b601f198416611803866115df565b60005b8281101561182b57848901518255600182019150602085019450602081019050611806565b868310156118485784890151611844601f891682611751565b8355505b6001600288020188555050505b505050505050565b7f556e6c6f636b2074696d65206d75737420626520696e2074686520667574757260008201527f6500000000000000000000000000000000000000000000000000000000000000602082015250565b60006118b9602183610e56565b91506118c48261185d565b604082019050919050565b600060208201905081810360008301526118e8816118ac565b9050919050565b7f4d6573736167652063616e6e6f7420626520656d707479000000000000000000600082015250565b6000611925601783610e56565b9150611930826118ef565b602082019050919050565b6000602082019050818103600083015261195481611918565b9050919050565b7f5469746c652063616e6e6f7420626520656d7074790000000000000000000000600082015250565b6000611991601583610e56565b915061199c8261195b565b602082019050919050565b600060208201905081810360008301526119c081611984565b9050919050565b7f4e487b7100000000000000000000000000000000000000000000000000000000600052601160045260246000fd5b6000611a0182610d7d565b91507fffffffffffffffffffffffffffffffffffffffffffffffffffffffffffffffff8203611a3357611a326119c7565b5b600182019050919050565b6000604082019050611a536000830185610e21565b8181036020830152611a658184610ea2565b90509392505050565b7f43617073756c65206973207374696c6c206c6f636b6564000000000000000000600082015250565b6000611aa4601783610e56565b9150611aaf82611a6e565b602082019050919050565b60006020820190508181036000830152611ad381611a97565b905091905056fea264697066735822122034865c473ea97c3dad169483ea2c06b337567d0d8921ddff4124f6bf17c560cb64736f6c634300081b0033",
  "linkReferences": {},
  "deployedLinkReferences": {}
}